:10005A007401A807088002C333D8FC429DE4F5BDA9
:07006A0075BC8000000022BC
:10007100EF4488F5BC00000000E5BC30E4FB53BC54
:06008100EFAFBD7E00227E
:0C008700750801D2B2C2B3D2CCC2CD22A7
:0C009300750802C2B2D2B3C2CCD2CD229A
:10003F00EF1FAA0670011E4A60107C137D88ED1D0C
:0A004F00AA0470011C4A60E880F466
:010059002284
:10000300E4FF12005A120087E4FF120071E508B4FE
:10001300010EC3EF943AEE64809480500312009370
:10002300E508B402E3D3EF943DEE6480948040D8B6
:0C0033001200877F0A7E0012003F80CC84
:0300000002009F5C
:0C009F00787FE4F6D8FD758108020003AC
:00000001FF
